:020000040000FA
:100000006802001069010000710100007301000026
:100010007501000077010000790100000000000078
:100020000000000000000000000000007B01000054
:100030007D010000000000007F0100008101000040
:1000400083010000830100008301000083010000A0
:100050008301000083010000830100008301000090
:100060008301000083010000830100008301000080
:100070008301000083010000830100008301000070
:100080008301000083010000830100008301000060
:100090008301000083010000830100008301000050
:1000A0008301000083010000830100008301000040
:1000B0008301000083010000830100008301000030
:1000C00083010000830100008301000000F002F8BA
:1000D00000F03AF80AA090E8000C82448344AAF1A8
:1000E0000107DA4501D100F02FF8AFF2090EBAE8A6
:1000F0000F0013F0010F18BFFB1A43F0010318475C
:100100006405000084050000103A24BF78C878C157
:10011000FAD8520724BF30C830C144BF04680C600D
:10012000704700000023002400250026103A28BF55
:1001300078C1FBD8520728BF30C148BF0B60704759
:100140001FB51FBD10B510BD00F066FA1146FFF7D0
:10015000F7FF00F037F800F0BBF803B4FFF7F2FF49
:1001600003BC00F0BFF80000094880470948004779
:10017000FEE7FEE7FEE7FEE7FEE7FEE7FEE7FEE757
:10018000FEE7FEE704480549034A054B70470000B7
:10019000A9040000CD0000006800001068020010F3
:1001A000680000100246002107E0002000E0401C2B
:1001B00040F2FB439842FAD3401C40F2FB43994281
:1001C000F3D370474FF0FF600349086203E04FF03C
:1001D000AA6001498863FAE700C0092053EA020CCB
:1001E00000F069802DE9F04B4FF00006002B1FBF97
:1001F000B3FA83F503FA05F424FA05F65E4012BF5C
:100200001643B2FA82F502FA05F4C5F120051EBFC5
:1002100022FA05FC44EA0C04203556EA044C4FEA65
:10022000144418BF641C4FF000084FF000099042BE
:1002300071EB030C39D3002919BFB1FA81F701FA28
:1002400007F6B0FA80F700FA07F6C7F120071EBFDD
:1002500020FA07FC46EA0C062037B6FBF4FCA7EBB5
:100260000507103F07F01F0BCBF120060CFA0BFB24
:100270002CFA06F644BFB3460026202FA4BF5E46E4
:100280004FF0000B5BEA060C08BF4FF0010B19EBB7
:100290000B09ABFB027C48EB0608C01B06FB02CC3B
:1002A0000BFB03CC71EB0C01C1E70B460246414648
:1002B0004846BDE8F08B13B54FF000004FF0000149
:1002C000AFF30080BDE81C4070477047704770472F
:1002D0000446AFF300802046FFF73FFF0048704719
:1002E0000400001001491820ABBEFEE72600020002
:1002F000704700000000000000000000FFFFFFFF4B
:100300002DE9F047B1480068C0F3016003287CD1B3
:10031000AF48006810F0030006D0012833D002284F
:100320005FD003282ED100E000BFA8480068C0F3CA
:10033000074000F101044FF00201A648D0F8880000
:10034000C0F30E0000F10100A1FB0001A24B4FF031
:10035000000CA0FB037901FB039100FB0C1122466A
:1003600063463846FFF73AFF05469C480068C0B22E
:1003700000F1010422464FF000032846FFF72EFF4C
:10038000974908605DE091480068C0F3074000F1BC
:1003900001044FF002018F48D0F88800C0F30E002E
:1003A00000F10100A1FB00108E4A4FF0000CA1FBF0
:1003B000027900FB029001FB0C012246634638469D
:1003C000FFF70CFF054685480068C0B200F1010444
:1003D00022464FF000032846FFF700FF80490860DF
:1003E0002FE07A480068C0F3074000F101044FF0A5
:1003F00002017848D0F88800C0F30E0000F1010037
:10040000A1FB00124FF4004000E01BE04FF000039E
:10041000A1FB007902FB009001FB03012246384654
:10042000FFF7DCFE05466D480068C0B200F101042C
:1004300022464FF000032846FFF7D0FE68490860C7
:1004400000BF2FE06248006810F0030006D00128CA
:1004500010D0022819D0032823D100E000BF5F4844
:100460000068C0B200F101005B49B1FBF0F05C49EB
:10047000086016E059480068C0B200F1010059490F
:10048000B1FBF0F0564908600BE054480068C0B278
:1004900000F101004FF40041B1FBF0F05049086059
:1004A00000BF00BFBDE8F08720204F4908604948E1
:1004B000D0F8A00110F0200F05D000BF4A48006816
:1004C00010F0400FFAD00320444908604FF00000BC
:1004D0004049C1F8A801454908604FF001003C4976
:1004E00008604348434908604FF0AA004249086049
:1004F0004FF0550008604FF00100404908604FF090
:10050000AA003D4908604FF055003249C1F88C00FF
:1005100000BF2E48006810F0806FFAD003203749E2
:1005200008604FF0AA002B49C1F88C004FF055002D
:100530003149086000BF2548006800F04070B0F104
:10054000407FF8D123202E4908604FF0AA002149AE
:10055000C1F8AC004FF055002A4908604FF0010087
:10056000294908604FF0AA00264908604FF055005D
:100570001849C1F8AC0000BF2448006810F4806F2F
:10058000FAD00320204908604FF0AA001149C1F8B1
:10059000AC004FF055001B49086000BF1B480068C5
:1005A00000F44070B0F5407FF8D11948194908604F
:1005B0004FF000000749C1F8C8010846006820F460
:1005C000704040F4804008607047000088C00F40D1
:1005D0000CC10F4000C00F4000093D0004C10F4096
:1005E00000000010001BB700A0C10F40ACC10F40BD
:1005F0006300050084C00F408CC00F4080C00F40D6
:10060000A4C00F40ACC00F40A0C00F40A8C00F4016
:10061000DE872804C4C00F407546FFF75FFEAE4674
:1006200005006946534620F00700854618B020B5FE
:10063000FFF7A8FDBDE820404FF000064FF000078F
:100640004FF000084FF0000B21F00701AC46ACE87A
:10065000C009ACE8C009ACE8C009ACE8C0098D46E7
:100660007047000084060000000000100400000035
:100670000801000088060000040000106402000069
:080680002401000000E1F50572
:04000005000001698D
:00000001FF
